{
    "_format": "hh-sol-artifact-1",
    "contractName": "Flashloan",
    "sourceName": "contracts/Flashloan.sol",
    "abi": [
        {
            "inputs": [
                {
                    "internalType": "address",
                    "name": "_vault",
                    "type": "address"
                }
            ],
            "stateMutability": "nonpayable",
            "type": "constructor"
        },
        {
            "anonymous": false,
            "inputs": [
                {
                    "indexed": true,
                    "internalType": "address",
                    "name": "previousOwner",
                    "type": "address"
                },
                {
                    "indexed": true,
                    "internalType": "address",
                    "name": "newOwner",
                    "type": "address"
                }
            ],
            "name": "OwnershipTransferred",
            "type": "event"
        },
        {
            "inputs": [
                {
                    "components": [
                        {
                            "internalType": "uint256",
                            "name": "amountIn",
                            "type": "uint256"
                        },
                        {
                            "internalType": "address[]",
                            "name": "tokenPath",
                            "type": "address[]"
                        },
                        {
                            "internalType": "address[]",
                            "name": "protocolPath",
                            "type": "address[]"
                        },
                        {
                            "internalType": "uint8[]",
                            "name": "protocolTypes",
                            "type": "uint8[]"
                        },
                        {
                            "internalType": "uint24[]",
                            "name": "fees",
                            "type": "uint24[]"
                        }
                    ],
                    "internalType": "struct ArbParams",
                    "name": "params",
                    "type": "tuple"
                }
            ],
            "name": "executeArbitrage",
            "outputs": [],
            "stateMutability": "nonpayable",
            "type": "function"
        },
        {
            "inputs": [],
            "name": "owner",
            "outputs": [
                {
                    "internalType": "address",
                    "name": "",
                    "type": "address"
                }
            ],
            "stateMutability": "view",
            "type": "function"
        },
        {
            "inputs": [
                {
                    "internalType": "contract IERC20[]",
                    "name": "tokens",
                    "type": "address[]"
                },
                {
                    "internalType": "uint256[]",
                    "name": "amounts",
                    "type": "uint256[]"
                },
                {
                    "internalType": "uint256[]",
                    "name": "feeAmounts",
                    "type": "uint256[]"
                },
                {
                    "internalType": "bytes",
                    "name": "userData",
                    "type": "bytes"
                }
            ],
            "name": "receiveFlashLoan",
            "outputs": [],
            "stateMutability": "nonpayable",
            "type": "function"
        },
        {
            "inputs": [],
            "name": "renounceOwnership",
            "outputs": [],
            "stateMutability": "nonpayable",
            "type": "function"
        },
        {
            "inputs": [
                {
                    "internalType": "address",
                    "name": "newOwner",
                    "type": "address"
                }
            ],
            "name": "transferOwnership",
            "outputs": [],
            "stateMutability": "nonpayable",
            "type": "function"
        }
    ],
    "bin": "0x60a060405234801561001057600080fd5b5060405161184438038061184483398101604081905261002f91610099565b61003833610049565b6001600160a01b03166080526100c9565b600080546001600160a01b038381166001600160a01b0319831681178455604051919092169283917f8be0079c531659141344cd1fd0a4f28419497f9722a3daafe3b4186f6b6457e09190a35050565b6000602082840312156100ab57600080fd5b81516001600160a01b03811681146100c257600080fd5b9392505050565b6080516117596100eb6000396000818161048d015261068701526117596000f3fe608060405234801561001057600080fd5b50600436106100575760003560e01c8063715018a61461005c5780638da5cb5b14610066578063f04f270714610085578063f2fde38b14610098578063f833691c146100ab575b600080fd5b6100646100be565b005b600054604080516001600160a01b039092168252519081900360200190f35b610064610093366004610d49565b6100d2565b6100646100a6366004610e54565b610516565b6100646100b9366004610fc4565b61058f565b6100c66106fa565b6100d06000610754565b565b6000818060200190518101906100e891906111d3565b805190915060006100f8826107a4565b905060005b8360400151518110156102dc5760408051600280825260608201835260009260208301908036833701905050905084602001518281518110610141576101416112a7565b60200260200101518160008151811061015c5761015c6112a7565b6001600160a01b039092166020928302919091018201528501516101818360016112d3565b81518110610191576101916112a7565b6020026020010151816001815181106101ac576101ac6112a7565b60200260200101906001600160a01b031690816001600160a01b0316815250506000856060015183815181106101e4576101e46112a7565b602002602001015190508060ff1660001415610229576102228587604001518581518110610214576102146112a7565b6020026020010151846108aa565b945061027e565b8060ff166001141561027e5761027b858760400151858151811061024f5761024f6112a7565b60200260200101518860800151868151811061026d5761026d6112a7565b602002602001015185610970565b94505b83610288866107a4565b604051602001610298919061131b565b60408051601f19818403018152908290526102b69291602001611344565b6040516020818303038152906040529350505080806102d490611373565b9150506100fd565b5082600001518211816040516020016102f5919061138e565b6040516020818303038152906040529061032b5760405162461bcd60e51b815260040161032291906113ee565b60405180910390fd5b508560008151811061033f5761033f6112a7565b602002602001015182116103955760405162461bcd60e51b815260206004820152601f60248201527f536f6d657468696e672062726f6b656e207769746820636f6e747261637421006044820152606401610322565b6000876000815181106103aa576103aa6112a7565b602002602001015190506000876000815181106103c9576103c96112a7565b60200260200101519050600081856103e19190611401565b9050826001600160a01b031663a9059cbb6104046000546001600160a01b031690565b6040516001600160e01b031960e084901b1681526001600160a01b039091166004820152602481018490526044016020604051808303816000875af1158015610451573d6000803e3d6000fd5b505050506040513d601f19601f820116820180604052508101906104759190611418565b5060405163a9059cbb60e01b81526001600160a01b037f0000000000000000000000000000000000000000000000000000000000000000811660048301526024820184905284169063a9059cbb906044016020604051808303816000875af11580156104e5573d6000803e3d6000fd5b505050506040513d601f19601f820116820180604052508101906105099190611418565b5050505050505050505050565b61051e6106fa565b6001600160a01b0381166105835760405162461bcd60e51b815260206004820152602660248201527f4f776e61626c653a206e6577206f776e657220697320746865207a65726f206160448201526564647265737360d01b6064820152608401610322565b61058c81610754565b50565b6105976106fa565b6000816040516020016105aa91906114b3565b60408051601f1981840301815260018084528383019092529250600091906020808301908036833750506040805160018082528183019092529293506000929150602080830190803683370190505090508360200151600081518110610612576106126112a7565b60200260200101518260008151811061062d5761062d6112a7565b60200260200101906001600160a01b031690816001600160a01b031681525050836000015181600081518110610665576106656112a7565b6020908102919091010152604051632e1c224f60e11b81526001600160a01b037f00000000000000000000000000000000000000000000000000000000000000001690635c38449e906106c2903090869086908990600401611563565b600060405180830381600087803b1580156106dc57600080fd5b505af11580156106f0573d6000803e3d6000fd5b5050505050505050565b6000546001600160a01b031633146100d05760405162461bcd60e51b815260206004820181905260248201527f4f776e61626c653a2063616c6c6572206973206e6f7420746865206f776e65726044820152606401610322565b600080546001600160a01b038381166001600160a01b0319831681178455604051919092169283917f8be0079c531659141344cd1fd0a4f28419497f9722a3daafe3b4186f6b6457e09190a35050565b6060816107c85750506040805180820190915260018152600360fc1b602082015290565b8160005b81156107f257806107dc81611373565b91506107eb9050600a83611620565b91506107cc565b60008167ffffffffffffffff81111561080d5761080d610bc5565b6040519080825280601f01601f191660200182016040528015610837576020820181803683370190505b5090505b84156108a25761084c600183611401565b9150610859600a86611634565b6108649060306112d3565b60f81b818381518110610879576108796112a7565b60200101906001600160f81b031916908160001a90535061089b600a86611620565b945061083b565b949350505050565b60006108d1826000815181106108c2576108c26112a7565b60200260200101518486610b10565b6040516338ed173960e01b81526001600160a01b038416906338ed173990610906908790600190879030904290600401611648565b6000604051808303816000875af1158015610925573d6000803e3d6000fd5b505050506040513d6000823e601f3d908101601f1916820160405261094d9190810190611684565b60018151811061095f5761095f6112a7565b602002602001015190509392505050565b60008084905061099b8360008151811061098c5761098c6112a7565b60200260200101518288610b10565b806001600160a01b031663414bf389604051806101000160405280866000815181106109c9576109c96112a7565b60200260200101516001600160a01b03168152602001866001815181106109f2576109f26112a7565b60200260200101516001600160a01b031681526020018762ffffff168152602001306001600160a01b031681526020014281526020018981526020016000815260200160006001600160a01b03168152506040518263ffffffff1660e01b8152600401610ac3919081516001600160a01b03908116825260208084015182169083015260408084015162ffffff16908301526060808401518216908301526080808401519083015260a0838101519083015260c0808401519083015260e09283015116918101919091526101000190565b6020604051808303816000875af1158015610ae2573d6000803e3d6000fd5b505050506040513d601f19601f82011682018060405250810190610b06919061170a565b9695505050505050565b60405163095ea7b360e01b81526001600160a01b0383811660048301526024820183905284169063095ea7b3906044016020604051808303816000875af1158015610b5f573d6000803e3d6000fd5b505050506040513d601f19601f82011682018060405250810190610b839190611418565b610bc05760405162461bcd60e51b815260206004820152600e60248201526d185c1c1c9bdd994819985a5b195960921b6044820152606401610322565b505050565b634e487b7160e01b600052604160045260246000fd5b60405160a0810167ffffffffffffffff81118282101715610bfe57610bfe610bc5565b60405290565b604051601f8201601f1916810167ffffffffffffffff81118282101715610c2d57610c2d610bc5565b604052919050565b600067ffffffffffffffff821115610c4f57610c4f610bc5565b5060051b60200190565b6001600160a01b038116811461058c57600080fd5b600082601f830112610c7f57600080fd5b81356020610c94610c8f83610c35565b610c04565b82815260059290921b84018101918181019086841115610cb357600080fd5b8286015b84811015610cce5780358352918301918301610cb7565b509695505050505050565b600082601f830112610cea57600080fd5b813567ffffffffffffffff811115610d0457610d04610bc5565b610d17601f8201601f1916602001610c04565b818152846020838601011115610d2c57600080fd5b816020850160208301376000918101602001919091529392505050565b60008060008060808587031215610d5f57600080fd5b843567ffffffffffffffff80821115610d7757600080fd5b818701915087601f830112610d8b57600080fd5b81356020610d9b610c8f83610c35565b82815260059290921b8401810191818101908b841115610dba57600080fd5b948201945b83861015610de1578535610dd281610c59565b82529482019490820190610dbf565b98505088013592505080821115610df757600080fd5b610e0388838901610c6e565b94506040870135915080821115610e1957600080fd5b610e2588838901610c6e565b93506060870135915080821115610e3b57600080fd5b50610e4887828801610cd9565b91505092959194509250565b600060208284031215610e6657600080fd5b8135610e7181610c59565b9392505050565b600082601f830112610e8957600080fd5b81356020610e99610c8f83610c35565b82815260059290921b84018101918181019086841115610eb857600080fd5b8286015b84811015610cce578035610ecf81610c59565b8352918301918301610ebc565b60ff8116811461058c57600080fd5b600082601f830112610efc57600080fd5b81356020610f0c610c8f83610c35565b82815260059290921b84018101918181019086841115610f2b57600080fd5b8286015b84811015610cce578035610f4281610edc565b8352918301918301610f2f565b62ffffff8116811461058c57600080fd5b600082601f830112610f7157600080fd5b81356020610f81610c8f83610c35565b82815260059290921b84018101918181019086841115610fa057600080fd5b8286015b84811015610cce578035610fb781610f4f565b8352918301918301610fa4565b600060208284031215610fd657600080fd5b813567ffffffffffffffff80821115610fee57600080fd5b9083019060a0828603121561100257600080fd5b61100a610bdb565b8235815260208301358281111561102057600080fd5b61102c87828601610e78565b60208301525060408301358281111561104457600080fd5b61105087828601610e78565b60408301525060608301358281111561106857600080fd5b61107487828601610eeb565b60608301525060808301358281111561108c57600080fd5b61109887828601610f60565b60808301525095945050505050565b600082601f8301126110b857600080fd5b815160206110c8610c8f83610c35565b82815260059290921b840181019181810190868411156110e757600080fd5b8286015b84811015610cce5780516110fe81610c59565b83529183019183016110eb565b600082601f83011261111c57600080fd5b8151602061112c610c8f83610c35565b82815260059290921b8401810191818101908684111561114b57600080fd5b8286015b84811015610cce57805161116281610edc565b835291830191830161114f565b600082601f83011261118057600080fd5b81516020611190610c8f83610c35565b82815260059290921b840181019181810190868411156111af57600080fd5b8286015b84811015610cce5780516111c681610f4f565b83529183019183016111b3565b6000602082840312156111e557600080fd5b815167ffffffffffffffff808211156111fd57600080fd5b9083019060a0828603121561121157600080fd5b611219610bdb565b8251815260208301518281111561122f57600080fd5b61123b878286016110a7565b60208301525060408301518281111561125357600080fd5b61125f878286016110a7565b60408301525060608301518281111561127757600080fd5b6112838782860161110b565b60608301525060808301518281111561129b57600080fd5b6110988782860161116f565b634e487b7160e01b600052603260045260246000fd5b634e487b7160e01b600052601160045260246000fd5b600082198211156112e6576112e66112bd565b500190565b60005b838110156113065781810151838201526020016112ee565b83811115611315576000848401525b50505050565b600b60fa1b8152600082516113378160018501602087016112eb565b9190910160010192915050565b600083516113568184602088016112eb565b83519083019061136a8183602088016112eb565b01949350505050565b6000600019821415611387576113876112bd565b5060010190565b6b1b9bdd081c99585b1a5e995960a21b8152600082516113b581600c8501602087016112eb565b91909101600c0192915050565b600081518084526113da8160208601602086016112eb565b601f01601f19169290920160200192915050565b602081526000610e7160208301846113c2565b600082821015611413576114136112bd565b500390565b60006020828403121561142a57600080fd5b81518015158114610e7157600080fd5b600081518084526020808501945080840160005b838110156114735781516001600160a01b03168752958201959082019060010161144e565b509495945050505050565b600081518084526020808501945080840160005b8381101561147357815162ffffff1687529582019590820190600101611492565b600060208083528351818401528084015160a060408501526114d860c085018261143a565b90506040850151601f19808684030160608701526114f6838361143a565b6060880151878203830160808901528051808352908601945060009350908501905b8084101561153b57845160ff168252938501936001939093019290850190611518565b5060808801519450818782030160a0880152611557818661147e565b98975050505050505050565b6001600160a01b0385811682526080602080840182905286519184018290526000928782019290919060a0860190855b818110156115b1578551851683529483019491830191600101611593565b5050858103604087015287518082529082019350915080870160005b838110156115e9578151855293820193908201906001016115cd565b5050505082810360608401526115ff81856113c2565b979650505050505050565b634e487b7160e01b600052601260045260246000fd5b60008261162f5761162f61160a565b500490565b6000826116435761164361160a565b500690565b85815284602082015260a06040820152600061166760a083018661143a565b6001600160a01b0394909416606083015250608001529392505050565b6000602080838503121561169757600080fd5b825167ffffffffffffffff8111156116ae57600080fd5b8301601f810185136116bf57600080fd5b80516116cd610c8f82610c35565b81815260059190911b820183019083810190878311156116ec57600080fd5b928401925b828410156115ff578351825292840192908401906116f1565b60006020828403121561171c57600080fd5b505191905056fea2646970667358221220c389e4df5fcc9a370b01ea7b7d60846030a7df71d7f8f9f7452c1826e8eb5b6f64736f6c634300080c0033",
    "deployedBytecode": "0x608060405234801561001057600080fd5b50600436106100575760003560e01c8063715018a61461005c5780638da5cb5b14610066578063f04f270714610085578063f2fde38b14610098578063f833691c146100ab575b600080fd5b6100646100be565b005b600054604080516001600160a01b039092168252519081900360200190f35b610064610093366004610d49565b6100d2565b6100646100a6366004610e54565b610516565b6100646100b9366004610fc4565b61058f565b6100c66106fa565b6100d06000610754565b565b6000818060200190518101906100e891906111d3565b805190915060006100f8826107a4565b905060005b8360400151518110156102dc5760408051600280825260608201835260009260208301908036833701905050905084602001518281518110610141576101416112a7565b60200260200101518160008151811061015c5761015c6112a7565b6001600160a01b039092166020928302919091018201528501516101818360016112d3565b81518110610191576101916112a7565b6020026020010151816001815181106101ac576101ac6112a7565b60200260200101906001600160a01b031690816001600160a01b0316815250506000856060015183815181106101e4576101e46112a7565b602002602001015190508060ff1660001415610229576102228587604001518581518110610214576102146112a7565b6020026020010151846108aa565b945061027e565b8060ff166001141561027e5761027b858760400151858151811061024f5761024f6112a7565b60200260200101518860800151868151811061026d5761026d6112a7565b602002602001015185610970565b94505b83610288866107a4565b604051602001610298919061131b565b60408051601f19818403018152908290526102b69291602001611344565b6040516020818303038152906040529350505080806102d490611373565b9150506100fd565b5082600001518211816040516020016102f5919061138e565b6040516020818303038152906040529061032b5760405162461bcd60e51b815260040161032291906113ee565b60405180910390fd5b508560008151811061033f5761033f6112a7565b602002602001015182116103955760405162461bcd60e51b815260206004820152601f60248201527f536f6d657468696e672062726f6b656e207769746820636f6e747261637421006044820152606401610322565b6000876000815181106103aa576103aa6112a7565b602002602001015190506000876000815181106103c9576103c96112a7565b60200260200101519050600081856103e19190611401565b9050826001600160a01b031663a9059cbb6104046000546001600160a01b031690565b6040516001600160e01b031960e084901b1681526001600160a01b039091166004820152602481018490526044016020604051808303816000875af1158015610451573d6000803e3d6000fd5b505050506040513d601f19601f820116820180604052508101906104759190611418565b5060405163a9059cbb60e01b81526001600160a01b037f0000000000000000000000000000000000000000000000000000000000000000811660048301526024820184905284169063a9059cbb906044016020604051808303816000875af11580156104e5573d6000803e3d6000fd5b505050506040513d601f19601f820116820180604052508101906105099190611418565b5050505050505050505050565b61051e6106fa565b6001600160a01b0381166105835760405162461bcd60e51b815260206004820152602660248201527f4f776e61626c653a206e6577206f776e657220697320746865207a65726f206160448201526564647265737360d01b6064820152608401610322565b61058c81610754565b50565b6105976106fa565b6000816040516020016105aa91906114b3565b60408051601f1981840301815260018084528383019092529250600091906020808301908036833750506040805160018082528183019092529293506000929150602080830190803683370190505090508360200151600081518110610612576106126112a7565b60200260200101518260008151811061062d5761062d6112a7565b60200260200101906001600160a01b031690816001600160a01b031681525050836000015181600081518110610665576106656112a7565b6020908102919091010152604051632e1c224f60e11b81526001600160a01b037f00000000000000000000000000000000000000000000000000000000000000001690635c38449e906106c2903090869086908990600401611563565b600060405180830381600087803b1580156106dc57600080fd5b505af11580156106f0573d6000803e3d6000fd5b5050505050505050565b6000546001600160a01b031633146100d05760405162461bcd60e51b815260206004820181905260248201527f4f776e61626c653a2063616c6c6572206973206e6f7420746865206f776e65726044820152606401610322565b600080546001600160a01b038381166001600160a01b0319831681178455604051919092169283917f8be0079c531659141344cd1fd0a4f28419497f9722a3daafe3b4186f6b6457e09190a35050565b6060816107c85750506040805180820190915260018152600360fc1b602082015290565b8160005b81156107f257806107dc81611373565b91506107eb9050600a83611620565b91506107cc565b60008167ffffffffffffffff81111561080d5761080d610bc5565b6040519080825280601f01601f191660200182016040528015610837576020820181803683370190505b5090505b84156108a25761084c600183611401565b9150610859600a86611634565b6108649060306112d3565b60f81b818381518110610879576108796112a7565b60200101906001600160f81b031916908160001a90535061089b600a86611620565b945061083b565b949350505050565b60006108d1826000815181106108c2576108c26112a7565b60200260200101518486610b10565b6040516338ed173960e01b81526001600160a01b038416906338ed173990610906908790600190879030904290600401611648565b6000604051808303816000875af1158015610925573d6000803e3d6000fd5b505050506040513d6000823e601f3d908101601f1916820160405261094d9190810190611684565b60018151811061095f5761095f6112a7565b602002602001015190509392505050565b60008084905061099b8360008151811061098c5761098c6112a7565b60200260200101518288610b10565b806001600160a01b031663414bf389604051806101000160405280866000815181106109c9576109c96112a7565b60200260200101516001600160a01b03168152602001866001815181106109f2576109f26112a7565b60200260200101516001600160a01b031681526020018762ffffff168152602001306001600160a01b031681526020014281526020018981526020016000815260200160006001600160a01b03168152506040518263ffffffff1660e01b8152600401610ac3919081516001600160a01b03908116825260208084015182169083015260408084015162ffffff16908301526060808401518216908301526080808401519083015260a0838101519083015260c0808401519083015260e09283015116918101919091526101000190565b6020604051808303816000875af1158015610ae2573d6000803e3d6000fd5b505050506040513d601f19601f82011682018060405250810190610b06919061170a565b9695505050505050565b60405163095ea7b360e01b81526001600160a01b0383811660048301526024820183905284169063095ea7b3906044016020604051808303816000875af1158015610b5f573d6000803e3d6000fd5b505050506040513d601f19601f82011682018060405250810190610b839190611418565b610bc05760405162461bcd60e51b815260206004820152600e60248201526d185c1c1c9bdd994819985a5b195960921b6044820152606401610322565b505050565b634e487b7160e01b600052604160045260246000fd5b60405160a0810167ffffffffffffffff81118282101715610bfe57610bfe610bc5565b60405290565b604051601f8201601f1916810167ffffffffffffffff81118282101715610c2d57610c2d610bc5565b604052919050565b600067ffffffffffffffff821115610c4f57610c4f610bc5565b5060051b60200190565b6001600160a01b038116811461058c57600080fd5b600082601f830112610c7f57600080fd5b81356020610c94610c8f83610c35565b610c04565b82815260059290921b84018101918181019086841115610cb357600080fd5b8286015b84811015610cce5780358352918301918301610cb7565b509695505050505050565b600082601f830112610cea57600080fd5b813567ffffffffffffffff811115610d0457610d04610bc5565b610d17601f8201601f1916602001610c04565b818152846020838601011115610d2c57600080fd5b816020850160208301376000918101602001919091529392505050565b60008060008060808587031215610d5f57600080fd5b843567ffffffffffffffff80821115610d7757600080fd5b818701915087601f830112610d8b57600080fd5b81356020610d9b610c8f83610c35565b82815260059290921b8401810191818101908b841115610dba57600080fd5b948201945b83861015610de1578535610dd281610c59565b82529482019490820190610dbf565b98505088013592505080821115610df757600080fd5b610e0388838901610c6e565b94506040870135915080821115610e1957600080fd5b610e2588838901610c6e565b93506060870135915080821115610e3b57600080fd5b50610e4887828801610cd9565b91505092959194509250565b600060208284031215610e6657600080fd5b8135610e7181610c59565b9392505050565b600082601f830112610e8957600080fd5b81356020610e99610c8f83610c35565b82815260059290921b84018101918181019086841115610eb857600080fd5b8286015b84811015610cce578035610ecf81610c59565b8352918301918301610ebc565b60ff8116811461058c57600080fd5b600082601f830112610efc57600080fd5b81356020610f0c610c8f83610c35565b82815260059290921b84018101918181019086841115610f2b57600080fd5b8286015b84811015610cce578035610f4281610edc565b8352918301918301610f2f565b62ffffff8116811461058c57600080fd5b600082601f830112610f7157600080fd5b81356020610f81610c8f83610c35565b82815260059290921b84018101918181019086841115610fa057600080fd5b8286015b84811015610cce578035610fb781610f4f565b8352918301918301610fa4565b600060208284031215610fd657600080fd5b813567ffffffffffffffff80821115610fee57600080fd5b9083019060a0828603121561100257600080fd5b61100a610bdb565b8235815260208301358281111561102057600080fd5b61102c87828601610e78565b60208301525060408301358281111561104457600080fd5b61105087828601610e78565b60408301525060608301358281111561106857600080fd5b61107487828601610eeb565b60608301525060808301358281111561108c57600080fd5b61109887828601610f60565b60808301525095945050505050565b600082601f8301126110b857600080fd5b815160206110c8610c8f83610c35565b82815260059290921b840181019181810190868411156110e757600080fd5b8286015b84811015610cce5780516110fe81610c59565b83529183019183016110eb565b600082601f83011261111c57600080fd5b8151602061112c610c8f83610c35565b82815260059290921b8401810191818101908684111561114b57600080fd5b8286015b84811015610cce57805161116281610edc565b835291830191830161114f565b600082601f83011261118057600080fd5b81516020611190610c8f83610c35565b82815260059290921b840181019181810190868411156111af57600080fd5b8286015b84811015610cce5780516111c681610f4f565b83529183019183016111b3565b6000602082840312156111e557600080fd5b815167ffffffffffffffff808211156111fd57600080fd5b9083019060a0828603121561121157600080fd5b611219610bdb565b8251815260208301518281111561122f57600080fd5b61123b878286016110a7565b60208301525060408301518281111561125357600080fd5b61125f878286016110a7565b60408301525060608301518281111561127757600080fd5b6112838782860161110b565b60608301525060808301518281111561129b57600080fd5b6110988782860161116f565b634e487b7160e01b600052603260045260246000fd5b634e487b7160e01b600052601160045260246000fd5b600082198211156112e6576112e66112bd565b500190565b60005b838110156113065781810151838201526020016112ee565b83811115611315576000848401525b50505050565b600b60fa1b8152600082516113378160018501602087016112eb565b9190910160010192915050565b600083516113568184602088016112eb565b83519083019061136a8183602088016112eb565b01949350505050565b6000600019821415611387576113876112bd565b5060010190565b6b1b9bdd081c99585b1a5e995960a21b8152600082516113b581600c8501602087016112eb565b91909101600c0192915050565b600081518084526113da8160208601602086016112eb565b601f01601f19169290920160200192915050565b602081526000610e7160208301846113c2565b600082821015611413576114136112bd565b500390565b60006020828403121561142a57600080fd5b81518015158114610e7157600080fd5b600081518084526020808501945080840160005b838110156114735781516001600160a01b03168752958201959082019060010161144e565b509495945050505050565b600081518084526020808501945080840160005b8381101561147357815162ffffff1687529582019590820190600101611492565b600060208083528351818401528084015160a060408501526114d860c085018261143a565b90506040850151601f19808684030160608701526114f6838361143a565b6060880151878203830160808901528051808352908601945060009350908501905b8084101561153b57845160ff168252938501936001939093019290850190611518565b5060808801519450818782030160a0880152611557818661147e565b98975050505050505050565b6001600160a01b0385811682526080602080840182905286519184018290526000928782019290919060a0860190855b818110156115b1578551851683529483019491830191600101611593565b5050858103604087015287518082529082019350915080870160005b838110156115e9578151855293820193908201906001016115cd565b5050505082810360608401526115ff81856113c2565b979650505050505050565b634e487b7160e01b600052601260045260246000fd5b60008261162f5761162f61160a565b500490565b6000826116435761164361160a565b500690565b85815284602082015260a06040820152600061166760a083018661143a565b6001600160a01b0394909416606083015250608001529392505050565b6000602080838503121561169757600080fd5b825167ffffffffffffffff8111156116ae57600080fd5b8301601f810185136116bf57600080fd5b80516116cd610c8f82610c35565b81815260059190911b820183019083810190878311156116ec57600080fd5b928401925b828410156115ff578351825292840192908401906116f1565b60006020828403121561171c57600080fd5b505191905056fea2646970667358221220c389e4df5fcc9a370b01ea7b7d60846030a7df71d7f8f9f7452c1826e8eb5b6f64736f6c634300080c0033",
    "linkReferences": {},
    "deployedLinkReferences": {}
}